:020000040800F2
:1000000000280020E11100087D110008851100087A
:100010008D110008951100089D11000800000000D6
:10002000000000000000000000000000A511000812
:10003000B111000800000000BD110008C91100083E
:1000400029120008291200082912000829120008A4
:100050002912000829120008291200082912000894
:100060002912000829120008291200082912000884
:100070002912000829120008291200082912000874
:100080002912000829120008291200082912000864
:100090002912000829120008291200082912000854
:1000A0002912000829120008291200082912000844
:1000B0002912000829120008000000002912000877
:1000C00029120008000000000000000029120008AA
:1000D000000000002912000829120008000000009A
:1000E0002912000829120008291200080000000047
:1000F0000000000000000000000000000000000000
:0C01000000000000000000005FF808F1A3
:1001100010B5054C237833B9044B13B10448AFF341
:1001200000800123237010BD0C000020000000009F
:100130003C38000808B5034B1BB103490348AFF333
:10014000008008BD00000000100000203C380008BE
:1001500081F0004102E000BF83F0004330B54FEA78
:1001600041044FEA430594EA050F08BF90EA020FE5
:100170001FBF54EA000C55EA020C7FEA645C7FEA78
:10018000655C00F0E2804FEA5454D4EB5555B8BF9B
:100190006D420CDD2C4480EA020281EA030382EA0C
:1001A000000083EA010180EA020281EA0303362D9E
:1001B00088BF30BD11F0004F4FEA01314FF4801C71
:1001C0004CEA113102D0404261EB410113F0004F83
:1001D0004FEA03334CEA133302D0524263EB43033A
:1001E00094EA050F00F0A780A4F10104D5F1200ED8
:1001F0000DDB02FA0EFC22FA05F2801841F1000133
:1002000003FA0EF2801843FA05F359410EE0A5F106
:1002100020050EF1200E012A03FA0EFC28BF4CF037
:10022000020C43FA05F3C01851EBE37101F00045ED
:1002300007D54FF0000EDCF1000C7EEB00006EEBFA
:100240000101B1F5801F1BD3B1F5001F0CD3490884
:100250005FEA30004FEA3C0C04F101044FEA4452DB
:1002600012F5800F80F09A80BCF1004F08BF5FEA62
:10027000500C50F1000041EB045141EA050130BD42
:100280005FEA4C0C404141EB0101013C28BFB1F554
:10029000801FE9D291F0000F04BF01460020B1FA9F
:1002A00081F308BF2033A3F10B03B3F120020CDA72
:1002B0000C3208DD02F1140CC2F10C0201FA0CF050
:1002C00021FA02F10CE002F11402D8BFC2F1200CB5
:1002D00001FA02F120FA0CFCDCBF41EA0C0190406B
:1002E000E41AA2BF01EB0451294330BD6FEA0404B4
:1002F0001F3C1CDA0C340EDC04F11404C4F120029F
:1003000020FA04F001FA02F340EA030021FA04F3B0
:1003100045EA030130BDC4F10C04C4F1200220FA07
:1003200002F001FA04F340EA0300294630BD21FA45
:1003300004F0294630BD94F0000F83F4801306BF0B
:1003400081F480110134013D4EE77FEA645C18BFFF
:100350007FEA655C29D094EA050F08BF90EA020F96
:1003600005D054EA000C04BF1946104630BD91EA8E
:10037000030F1EBF0021002030BD5FEA545C05D191
:100380004000494128BF41F0004130BD14F58004D0
:100390003CBF01F5801130BD01F0004545F0FE4144
:1003A00041F470014FF0000030BD7FEA645C1ABF79
:1003B000194610467FEA655C1CBF0B46024650EAB0
:1003C000013406BF52EA033591EA030F41F40021DC
:1003D00030BD00BF90F0000F04BF0021704730B562
:1003E0004FF4806404F132044FF000054FF0000137
:1003F00050E700BF90F0000F04BF0021704730B5F8
:100400004FF4806404F1320410F0004548BF4042CC
:100410004FF000013EE700BF42004FEAE2014FEA21
:1004200031014FEA02701FBF12F07F4393F07F4FFC
:1004300081F06051704732F07F4208BF704793F0FF
:100440007F4F04BF41F40021704730B54FF4607412
:1004500001F0004521F000411CE700BF50EA010215
:1004600008BF704730B54FF000050AE050EA0102BE
:1004700008BF704730B511F0004502D5404261EB2E
:1004800041014FF4806404F132045FEA915C3FF46F
:10049000D8AE4FF003025FEADC0C18BF03325FEA0C
:1004A000DC0C18BF033202EBDC02C2F1200300FABD
:1004B00003FC20FA02F001FA03FE40EA0E0021FAE2
:1004C00002F11444BDE600BF70B54FF0FF0C4CF4D0
:1004D000E06C1CEA11541DBF1CEA135594EA0C0F82
:1004E00095EA0C0F00F0DEF82C4481EA030621EABD
:1004F0004C5123EA4C5350EA013518BF52EA0335F8
:1005000041F4801143F4801338D0A0FB02CE4FF0A9
:100510000005E1FB02E506F00042E0FB03E54FF0D9
:100520000006E1FB03569CF0000F18BF4EF0010ED1
:10053000A4F1FF04B6F5007F64F5407404D25FEACD
:100540004E0E6D4146EB060642EAC62141EA555180
:100550004FEAC52040EA5E504FEACE2EB4F1FD0CC2
:1005600088BFBCF5E06F1ED8BEF1004F08BF5FEA40
:10057000500E50F1000041EB045170BD06F00046F2
:1005800046EA010140EA020081EA0301B4EB5C049F
:10059000C2BFD4EB0C0541EA045170BD41F4801197
:1005A0004FF0000E013C00F3AB8014F1360FDEBFBC
:1005B000002001F0004170BDC4F10004203C35DA98
:1005C0000C341BDC04F11404C4F1200500FA05F31B
:1005D00020FA04F001FA05F240EA020001F00042BC
:1005E00021F0004110EBD37021FA04F642EB060132
:1005F0005EEA430E08BF20EAD37070BDC4F10C045C
:10060000C4F1200500FA04F320FA05F001FA04F21F
:1006100040EA020001F0004110EBD37041F100010B
:100620005EEA430E08BF20EAD37070BDC4F1200516
:1006300000FA05F24EEA020E20FA04F301FA05F27E
:1006400043EA020321FA04F001F0004121FA04F226
:1006500020EA020000EBD3705EEA430E08BF20EAF6
:10066000D37070BD94F0000F0FD101F00046400030
:1006700041EB010111F4801F08BF013CF7D041EAB2
:10068000060195F0000F18BF704703F000465200B6
:1006900043EB030313F4801F08BF013DF7D043EA87
:1006A0000603704794EA0C0F0CEA135518BF95EA3D
:1006B0000C0F0CD050EA410618BF52EA4306D1D1C4
:1006C00081EA030101F000414FF0000070BD50EAE3
:1006D000410606BF1046194652EA430619D094EA6D
:1006E0000C0F02D150EA013613D195EA0C0F05D157
:1006F00052EA03361CBF104619460AD181EA0301AB
:1007000001F0004141F0FE4141F470014FF0000062
:1007100070BD41F0FE4141F4780170BD70B54FF0FD
:10072000FF0C4CF4E06C1CEA11541DBF1CEA13557D
:1007300094EA0C0F95EA0C0F00F0A7F8A4EB05045F
:1007400081EA030E52EA03354FEA013100F0888056
:100750004FEA03334FF0805545EA131343EA12631F
:100760004FEA022245EA111545EA10654FEA0026D4
:100770000EF000419D4208BF964244F1FD0404F58D
:10078000407402D25B084FEA3202B61A65EB0305E9
:100790005B084FEA32024FF480104FF4002CB6EBA6
:1007A000020E75EB030E22BFB61A754640EA0C0026
:1007B0005B084FEA3202B6EB020E75EB030E22BF66
:1007C000B61A754640EA5C005B084FEA3202B6EBA7
:1007D000020E75EB030E22BFB61A754640EA9C0066
:1007E0005B084FEA3202B6EB020E75EB030E22BF36
:1007F000B61A754640EADC0055EA060E18D04FEAF4
:10080000051545EA16754FEA06164FEAC30343EA93
:1008100052734FEAC2025FEA1C1CC0D111F4801F60
:100820000BD141EA00014FF000004FF0004CB6E759
:1008300011F4801F04BF01430020B4F1FD0C88BFF8
:10084000BCF5E06F3FF6AFAEB5EB030C04BFB6EB03
:10085000020C5FEA500C50F1000041EB045170BDF6
:100860000EF0004E4EEA113114EB5C04C2BFD4EB23
:100870000C0541EA045170BD41F480114FF0000EA7
:10088000013C90E645EA060E8DE60CEA135594EA23
:100890000C0F08BF95EA0C0F3FF43BAF94EA0C0F26
:1008A0000AD150EA01347FF434AF95EA0C0F7FF49B
:1008B00025AF104619462CE795EA0C0F06D152EAEF
:1008C00003353FF4FDAE1046194622E750EA4106D3
:1008D00018BF52EA43067FF4C5AE50EA41047FF4E4
:1008E0000DAF52EA43057FF4EBAE12E74A0011D296
:1008F00012F5001211D20DD56FF47873B3EB62527A
:100900000ED44FEAC12343F0004343EA505323FA85
:1009100002F070474FF00000704750EA013002D1FA
:100920004FF0FF3070474FF00000704780B582B045
:1009300000AF00F07BFC00F067F800F099F900F0E0
:10094000B9F800F0F5F800212C4802F0D5F92B4B4E
:100950001B6840F2DC525A6300F0AEFA002180209E
:1009600000F0C2FA0121412000F0BEFA01214E2020
:1009700000F0BAFA0121472000F0B6FA01214C201C
:1009800000F0B2FA0121452000F0AEFA01213A2030
:1009900000F0AAFA0021194802F0AEF9184B1A68C3
:1009A00017494FF6FE7313400B60154B0F229A62E6
:1009B000134B40F2CF72DA62114B0F229A62104B46
:1009C00044F24F625A630E4B01221A6000237B608F
:1009D0000C4800F089FD64210A4800F05FFE0948D8
:1009E00000F062FF7860074800F02CFE7B689BB245
:1009F000184600F07DF900BFEAE700BF580000206C
:100A0000002C01402800002080B594B000AF07F111
:100A1000280328220021184602F0E3FE07F1140300
:100A200000221A605A609A60DA601A613B1D002247
:100A30001A605A609A60DA600223BB620123BB63CA
:100A40001023FB6302237B640023BB644FF4002369
:100A5000FB6407F12803184601F03EFB0346002B18
:100A600001D000F0C5FA0F237B610223BB61002394
:100A7000FB6100233B6200237B6207F1140300212A
:100A8000184601F0ABFD0346002B01D000F0B0FA90
:100A900002237B600023FB603B1D184601F018FF1A
:100AA0000346002B01D000F0A3FA00BF5037BD462B
:100AB00080BD000080B584B000AF3B1D00221A60ED
:100AC0005A609A60184B194A1A60174B00229A60B4
:100AD000154B00221A73144B00221A75124B4FF457
:100AE0006022DA61104B00225A600F4B01221A611A
:100AF0000D4800F021FC0346002B01D000F078FAED
:100B000000237B600123BB600023FB603B1D194673
:100B1000054800F0D5FE0346002B01D000F068FA2E
:100B200000BF1037BD4680BD2800002000240140D2
:100B300080B596B000AF07F1480300221A605A60F2
:100B40009A60DA6007F1400300221A605A6007F1E8
:100B5000240300221A605A609A60DA601A615A61AE
:100B60009A613B1D20220021184602F03AFE3E4BBE
:100B70003E4A1A603C4B47225A603B4B00229A6027
:100B8000394B4FF6FF72DA60374B00221A61364B51
:100B900000225A61344B00229A61334802F004F873
:100BA0000346002B01D000F023FA4FF48053BB64BE
:100BB00007F1480319462C4802F0FCF90346002BC4
:100BC00001D000F015FA284802F03DF80346002B4A
:100BD00001D000F00DFA00233B6400237B6407F191
:100BE00040031946204802F053FD0346002B01D074
:100BF00000F0FEF960237B620023BB620023FB62EE
:100C000000233B6300237B630023BB630023FB6360
:100C100007F1240300221946134802F009F903469C
:100C2000002B01D000F0E4F900237B600023BB60BF
:100C30000023FB6000233B6100237B614FF40053E2
:100C4000BB6100233B623B1D1946074802F078FD5B
:100C50000346002B01D000F0CBF9034800F05AFA0C
:100C600000BF5837BD4680BD58000020002C014011
:100C700080B586B000AF07F1080300221A605A6001
:100C80009A60DA60184B9B69174A43F0200393611E
:100C9000154B9B6903F020037B607B68124B9B69BB
:100CA000114A43F0040393610F4B9B6903F0040363
:100CB0003B603B68002241F6F6610C4801F0F4F914
:100CC00041F6F663BB600123FB6000233B61022316
:100CD0007B6107F108031946044801F069F800BF79
:100CE0001837BD4680BD00BF00100240000801401B
:100CF00080B584B000AF0346FB80FB881846FFF741
:100D000079FB61A3D3E90023FFF7DEFB02460B4624
:100D1000104619465EA3D3E90023FFF7FFFC024605
:100D20000B4610461946FFF7E1FD0346FB60F868E5
:100D3000FFF750FB58A3D3E90023FFF7C5FB02469A
:100D40000B46104619464FF00002554BFFF7E6FCE4
:100D500002460B4610461946FFF7C8FD0346FB60E6
:100D6000FB68C3F51C531033FB604E4B1A684D49AA
:100D70004FF6FE7313400B604A4AFB685363494BBE
:100D80001B68484A43F0010313600021872000F0EC
:100D9000ABF8FB8842F2107202FB03F3002B01DA7E
:100DA00003F6FF731B13FB60FB683F4AA2FB0323A0
:100DB0005B0BFB72FB7A3033DBB20121184600F08B
:100DC00093F8FB68394AA2FB03239909384BA3FB2C
:100DD0000123DA0813469B0013445B00CA1A13462A
:100DE000FB72FB7A3033DBB20121184600F07CF84D
:100DF000FB68304AA2FB032359092D4BA3FB0123B7
:100E0000DA0813469B0013445B00CA1A1346FB72B0
:100E1000FB7A3033DBB20121184600F065F801217E
:100E20002E2000F061F8FB68214AA2FB0323D908B9
:100E30001F4BA3FB0123DA0813469B0013445B00FE
:100E4000CA1A1346FB72FB7A3033DBB20121184613
:100E500000F04AF8F968164BA3FB0123DA081346A1
:100E60009B0013445B00CA1A1346FB72FB7A3033B3
:100E7000DBB20121184600F037F800BF1037BD463D
:100E800080BD00BFAFF300809A999999992BB1402A
:100E900000000000006AF840C3F5285C8FB3B5403D
:100EA00000408F40002C01405917B7D1D34D62103C
:100EB000CDCCCCCC1F85EB5180B500AF00213820C4
:100EC00000F012F800210E2000F00EF8002106209C
:100ED00000F00AF80021012000F006F8002180202F
:100EE00000F002F800BF80BD80B584B000AF0346BB
:100EF0000A46FB711346BB71BB791A4602213B4877
:100F000001F0D2F8FB7903F00103FB73FB7B1A4677
:100F10001021364801F0C8F8FB795B08DBB203F01A
:100F20000103FB73FB7B1A462021304801F0BCF81B
:100F3000FB799B08DBB203F00103FB73FB7B1A46D2
:100F400040212A4801F0B0F8FB79DB08DBB203F05E
:100F50000103FB73FB7B1A468021244801F0A4F8AF
:100F6000FB791B09DBB203F00103FB73FB7B1A4621
:100F70004FF400711D4801F097F8FB795B09DBB273
:100F800003F00103FB73FB7B1A464FF480611748A3
:100F900001F08AF8FB799B09DBB203F00103FB73D4
:100FA000FB7B1A464FF40061104801F07DF8FB7995
:100FB000DB09FB73FB7B1A464FF480510B4801F0B1
:100FC00073F801220421094801F06EF8012000F0B5
:100FD0008FF900220421054801F066F8052000F091
:100FE00087F900BF1037BD4680BD00BF0008014033
:100FF00080B400AF72B600BF00BFFDE780B485B01B
:1010000000AF154B9B69144A43F001039361124BE7
:101010009B6903F00103BB60BB680F4BDB690E4AA1
:1010200043F08053D3610C4BDB6903F080537B604A
:101030007B680A4B5B68FB60FB6823F0E063FB6046
:10104000FB6843F08063FB60044AFB68536000BFA9
:101050001437BD4680BC70470010024000000140BC
:1010600080B588B000AF786007F1100300221A60E5
:101070005A609A60DA607B681B68144A934221D1F7
:10108000134B9B69124A43F400739361104B9B69A5
:1010900003F40073FB60FB680D4B9B690C4A43F043
:1010A000040393610A4B9B6903F00403BB60BB68B4
:1010B00001233B6103237B6107F1100319460548B7
:1010C00000F076FE00BF2037BD4680BD0024014001
:1010D000001002400008014080B485B000AF786085
:1010E0007B681B68094A93420BD1094B9B69084AEC
:1010F00043F400639361064B9B6903F40063FB6058
:10110000FB6800BF1437BD4680BC7047002C01400F
:101110000010024080B588B000AF786007F110037E
:1011200000221A605A609A60DA607B681B68104A75
:10113000934218D10F4B9B690E4A43F0040393610D
:101140000C4B9B6903F00403FB60FB684FF4807356
:101150003B6102237B610223FB6107F11003194607
:10116000054800F025FE00BF2037BD4680BD00BF0A
:10117000002C0140001002400008014080B400AF84
:1011800000BFFDE780B400AF00BFFDE780B400AF53
:1011900000BFFDE780B400AF00BFFDE780B400AF43
:1011A00000BFFDE780B400AF00BFBD4680BC704704
:1011B00080B400AF00BFBD4680BC704780B400AFB4
:1011C00000BFBD4680BC704780B500AF00F074F82A
:1011D00000BF80BD80B400AF00BFBD4680BC70477B
:1011E000FFF7F8FF0B480C490C4A002302E0D458E3
:1011F000C4500433C4188C42F9D3094A094C002363
:1012000001E013600432A242FBD302F0F3FAFFF7CD
:101210008DFB7047000000200C0000209C38000867
:101220000C000020A4000020FEE7000080B500AF05
:10123000084B1B68074A43F010031360032000F0BB
:1012400083FD0F2000F008F8FFF7D8FE00231846B2
:1012500080BD00BF0020024080B582B000AF786042
:10126000124B1A68124B1B7819464FF47A73B3FB72
:10127000F1F3B2FBF3F3184600F08DFD0346002BAB
:1012800001D001230EE07B680F2B0AD80022796879
:101290004FF0FF3000F063FD064A7B6813600023C7
:1012A00000E0012318460837BD4680BD000000203D
:1012B000080000200400002080B400AF054B1B781C
:1012C0001A46054B1B681344034A136000BFBD4612
:1012D00080BC704708000020A000002080B400AF50
:1012E000024B1B681846BD4680BC7047A00000201A
:1012F00080B584B000AF7860FFF7F0FFB8607B681E
:10130000FB60FB68B3F1FF3F05D00A4B1B781A4620
:10131000FB681344FB6000BFFFF7E0FF0246BB68B9
:10132000D31AFA689A42F7D800BF00BF1037BD46FB
:1013300080BD00BF0800002080B586B000AF786097
:101340000023FB7500233B610023BB600023FB608F
:101350007B68002B01D10123BEE07B689B68002BDA
:101360007B689B6A002B09D17B680022DA627B686C
:10137000002283F824207868FFF772FE786800F076
:10138000F1FB0346FB757B689B6A03F01003002B9F
:1013900040F09980FB7D002B40F095807B689B6A34
:1013A00023F4885323F0020343F002027B689A621D
:1013B0007B685A687B68DB691A437B681B7B5B0030
:1013C0001343BA681343BB607B689B68B3F5807FA7
:1013D00003D07B689B68012B02D14FF4807300E03F
:1013E00000233A6913433B617B681B7D012B19D1B4
:1013F0007B681B7B002B09D17B689B69013B5A03EF
:101400003B69134343F400633B610BE07B689B6AD9
:1014100043F020027B689A627B68DB6A43F001023A
:101420007B68DA627B681B685B6823F469417B68D0
:101430001B683A690A435A607B681B689A68284BA4
:1014400013407A681268B9680B4393607B689B68A5
:10145000B3F5807F03D07B689B68012B04D17B6848
:101460001B69013B1B05FB607B681B68DB6A23F47F
:1014700070017B681B68FA680A43DA627B681B6844
:101480009A68184B1340BA689A420BD17B680022C5
:10149000DA627B689B6A23F0030343F001027B68F6
:1014A0009A6218E07B689B6A23F0120343F01002F3
:1014B0007B689A627B68DB6A43F001027B68DA62D0
:1014C0000123FB7507E07B689B6A43F010027B6891
:1014D0009A620123FB75FB7D18461837BD4680BD17
:1014E000FDF7E1FFFE0E1FFF80B584B000AF78600E
:1014F0000023FB737B6893F82430012B01D1022376
:1015000098E07B68012283F82420786800F0D0FA04
:101510000346FB73FB7B002B40F087807B689B6A54
:1015200023F4407323F0010343F480727B689A62D2
:101530007B681B68414A934205D1414B5B6803F4C9
:101540007023002B15D17B689B6A23F480127B6883
:101550009A627B681B685B6803F48063002B26D06B
:101560007B689B6A23F4405343F480527B689A6201
:101570001DE07B689B6A43F480127B689A627B68FB
:101580001B682F4A934204D07B681B682B4A934206
:101590000DD12B4B5B6803F48063002B07D07B6875
:1015A0009B6A23F4405343F480527B689A627B68C1
:1015B0009B6A03F48053002B06D07B68DB6A23F020
:1015C00006027B68DA6202E07B680022DA627B68EE
:1015D000002283F824207B681B686FF002021A60E7
:1015E0007B681B689B6803F46023B3F5602F13D1FD
:1015F0007B681B68114A934205D1114B5B6803F469
:101600007023002B08D17B681B689A687B681B6875
:1016100042F4A0029A600CE07B681B689A687B68C1
:101620001B6842F480129A6003E07B68002283F812
:101630002420FB7B18461037BD4680BD00280140A2
:101640000024014080B584B000AF78600023FB73B4
:101650007B6893F82430012B01D102231AE07B68C8
:10166000012283F82420786800F07CFA0346FB739B
:10167000FB7B002B09D17B689B6A23F4885323F002
:10168000010343F001027B689A627B68002283F8C1
:101690002420FB7B18461037BD4680BD90B587B02F
:1016A00000AF7860396000237B610023FB6000237A
:1016B0003B61FFF713FE78617B681B689B6803F44E
:1016C0008073002B0BD07B689B6A43F020027B6801
:1016D0009A627B68002283F824200123D3E07B6890
:1016E0001B685B6803F48073002B31D17B681B6837
:1016F000DB6A03F47003002B2AD121E03B68B3F1CD
:10170000FF3F1DD03B68002B07D0FFF7E7FD0246E7
:101710007B69D31A3A689A4212D27B681B681B68AD
:1017200003F00203002B0BD17B689B6A43F0040299
:101730007B689A627B68002283F824200323A2E05E
:101740007B681B681B6803F00203002BD6D070E097
:101750004F4B1C68022001F071F90346B4FBF3F211
:101760007B681B6819694B4B0B40002B18D17B68B9
:101770001B68D968484B0B40002B11D17B681B6854
:101780001969464B0B40002B08D17B681B68D96850
:10179000434B0B40002B01D1142320E029231EE0F2
:1017A0007B681B6819693D4B0B40002B06D17B6899
:1017B0001B68D9683A4B0B40002B0DD07B681B6827
:1017C0001969384B0B40002B08D17B681B68D9681E
:1017D000344B0B40002B01D1542300E0FC2302FBCF
:1017E00003F33B6121E03B68B3F1FF3F1AD03B6854
:1017F000002B07D0FFF772FD02467B69D31A3A68C7
:101800009A420FD2FB683A699A420BD97B689B6A6D
:1018100043F004027B689A627B68002283F82420EC
:10182000032330E0FB680133FB60FB683A699A42AE
:10183000D9D87B681B686FF012021A607B689B6ABC
:1018400043F400727B689A627B681B689B6803F4B0
:101850006023B3F5602F15D17B681B7B002B11D162
:101860007B689B6A23F480727B689A627B689B6AC0
:1018700003F48053002B05D17B689B6A43F001027F
:101880007B689A62002318461C37BD4690BD00BF96
:1018900000000020244992242449920092244912F5
:1018A000922449004992240080B483B000AF78604C
:1018B0007B681B68DB6C18460C37BD4680BC7047E4
:1018C00080B485B000AF786039600023FB730023DB
:1018D000BB607B6893F82430012B01D10223DCE04C
:1018E0007B68012283F824203B685B68062B1CD8A8
:1018F0007B681B68596B3B685A6813469B0013440E
:10190000053B1F2202FA03F3DB4319403B681868CA
:101910003B685A6813469B001344053B00FA03F2E8
:101920007B681B680A435A633CE03B685B680C2B8E
:101930001CD87B681B68196B3B685A6813469B0070
:101940001344233B1F2202FA03F3DB4319403B6895
:1019500018683B685A6813469B001344233B00FAFF
:1019600003F27B681B680A431A631BE07B681B68F1
:10197000D96A3B685A6813469B001344413B1F22B7
:1019800002FA03F3DB4319403B6818683B685A6866
:1019900013469B001344413B00FA03F27B681B682B
:1019A0000A43DA623B681B68092B1CD97B681B68F9
:1019B000D9683B681A6813465B0013441E3B072234
:1019C00002FA03F3DB4319403B6898683B681A68E6
:1019D00013465B0013441E3B00FA03F27B681B684E
:1019E0000A43DA6019E07B681B6819693B681A686A
:1019F00013465B001344072202FA03F3DB4319404A
:101A00003B6898683B681A6813465B00134400FA09
:101A100003F27B681B680A431A613B681B68102B42
:101A200003D03B681B68112B32D17B681B681D4AB1
:101A3000934225D17B681B689B6803F40003002B4D
:101A400026D17B681B689A687B681B6842F4000299
:101A50009A603B681B68102B1AD1134B1B68134A02
:101A6000A2FB03239A0C13469B0013445B00BB604C
:101A700002E0BB68013BBB60BB68002BF9D107E00B
:101A80007B689B6A43F020027B689A620123FB73A8
:101A90007B68002283F82420FB7B18461437BD4660
:101AA00080BC7047002401400000002083DE1B43FF
:101AB00080B584B000AF78600023FB600023BB607A
:101AC0007B681B689B6803F00103012B40D07B6897
:101AD0001B689A687B681B6842F001029A601F4B82
:101AE0001B681F4AA2FB03239B0CBB6002E0BB6880
:101AF000013BBB60BB68002BF9D1FFF7EFFBF8603F
:101B00001FE0FFF7EBFB0246FB68D31A022B18D944
:101B10007B681B689B6803F00103012B11D07B6875
:101B20009B6A43F010027B689A627B68DB6A43F031
:101B300001027B68DA627B68002283F8242001239B
:101B400007E07B681B689B6803F00103012BD8D179
:101B5000002318461037BD4680BD00BF000000209E
:101B600083DE1B4380B584B000AF78600023FB6048
:101B70007B681B689B6803F00103012B2ED17B68F7
:101B80001B689A687B681B6822F001029A60FFF765
:101B9000A5FBF8601BE0FFF7A1FB0246FB68D31A28
:101BA000022B14D97B681B689B6803F00103012B8F
:101BB0000DD17B689B6A43F010027B689A627B6858
:101BC000DB6A43F001027B68DA62012307E07B688D
:101BD0001B689B6803F00103012BDCD0002318462F
:101BE0001037BD4680BD000080B485B000AF78607E
:101BF0007B6803F00703FB600C4BDB68BB60BA68D3
:101C00004FF6FF031340BB60FB681A02BB68134327
:101C100043F0BF6343F40033BB60044ABB68D36046
:101C200000BF1437BD4680BC704700BF00ED00E028
:101C300080B400AF044BDB681B0A03F007031846AF
:101C4000BD4680BC704700BF00ED00E080B483B0AB
:101C500000AF03463960FB7197F90730002B0ADBB0
:101C60003B68DAB20C4997F907301201D2B20B4443
:101C700083F800230AE03B68DAB20849FB7903F0F5
:101C80000F03043B1201D2B20B441A7600BF0C378B
:101C9000BD4680BC704700BF00E100E000ED00E001
:101CA00080B489B000AFF860B9607A60FB6803F077
:101CB0000703FB61FB69C3F10703042B28BF04235F
:101CC000BB61FB690433062B02D9FB69033B00E0CF
:101CD00000237B614FF0FF32BB6902FA03F3DA4362
:101CE000BB681A407B699A404FF0FF317B6901FA6B
:101CF00003F3D9437B680B40134318462437BD4692
:101D000080BC704780B582B000AF78607B68013BD3
:101D1000B3F1807F01D301230FE00A4A7B68013BC6
:101D200053600F214FF0FF30FFF790FF054B00226B
:101D30009A60044B07221A60002318460837BD46F4
:101D400080BD00BF10E000E080B582B000AF7860D9
:101D50007868FFF749FF00BF0837BD4680BD80B5F2
:101D600086B000AF0346B9607A60FB7300237B61E5
:101D7000FFF75EFF78617A68B9687869FFF790FFCE
:101D8000024697F90F3011461846FFF75FFF00BF74
:101D90001837BD4680BD80B582B000AF78607868E6
:101DA000FFF7B0FF034618460837BD4680BD000068
:101DB00080B48BB000AF7860396000237B62002371
:101DC0003B6261E101227B6A02FA03F3FB613B683B
:101DD0001B68FA691340BB61BA69FB699A4240F01B
:101DE00050813B685B68974A93425ED0954A934224
:101DF00075D8954A934258D0934A93426FD8934AE4
:101E0000934252D0914A934269D8914A93424CD01E
:101E10008F4A934263D88F4A934246D08D4A934269
:101E20005DD8122B2AD8122B59D801A252F823F0D0
:101E3000AB1E0008851E0008971E0008D91E00086A
:101E4000DF1E0008DF1E0008DF1E0008DF1E00087E
:101E5000DF1E0008DF1E0008DF1E0008DF1E00086E
:101E6000DF1E0008DF1E0008DF1E0008DF1E00085E
:101E7000DF1E00088D1E0008A11E0008764A93424E
:101E800013D02CE03B68DB683B6229E03B68DB68F1
:101E900004333B6224E03B68DB6808333B621FE0AD
:101EA0003B68DB680C333B621AE03B689B68002BA5
:101EB00002D104233B6213E03B689B68012B05D1F0
:101EC00008233B627B68FA691A6109E008233B62D8
:101ED0007B68FA695A6103E000233B6200E000BFBF
:101EE000BB69FF2B01D87B6801E07B6804337B6111
:101EF000BB69FF2B02D87B6A9B0002E07B6A083B30
:101F00009B003B617B691A680F213B6901FA03F36F
:101F1000DB431A40396A3B6901FA03F31A437B69D0
:101F20001A603B685B6803F08053002B00F0A980C7
:101F30004A4B9B69494A43F001039361474B9B69B4
:101F400003F00103BB60BB68454A7B6A9B08023310
:101F500052F82330FB607B6A03F003039B000F22DF
:101F600002FA03F3DB43FA681340FB607B683D4AE7
:101F700093420DD07B683C4A934207D07B683B4A32
:101F8000934201D1022304E0032302E0012300E095
:101F900000237A6A02F0030292009340FA68134326
:101FA000FB602F497B6A9B080233FA6841F82320C3
:101FB0003B685B6803F48013002B06D02C4B9A68B7
:101FC0002B49BB6913438B6006E0294B9A68BB69B8
:101FD000DB43274913408B603B685B6803F40013C5
:101FE000002B06D0224BDA682149BB691343CB6032
:101FF00006E01F4BDA68BB69DB431D491340CB6029
:102000003B685B6803F40033002B06D0184B5A681A
:102010001749BB6913434B6006E0154B5A68BB690F
:10202000DB43134913404B603B685B6803F4803328
:10203000002B1FD00E4B1A680D49BB6913430B6070
:102040001FE000BF0000321000003110000022101D
:1020500000002110000012100000111000100240BA
:102060000000014000080140000C01400010014048
:10207000000401400B4B1A68BB69DB43094913405C
:102080000B607B6A01337B623B681A687B6A22FAC9
:1020900003F3002B7FF496AE00BF00BF2C37BD4684
:1020A00080BC70470004014080B483B000AF78600A
:1020B0000B467B8013467B707B78002B03D07A889D
:1020C0007B681A6103E07B881A047B681A6100BF91
:1020D0000C37BD4680BC704780B586B000AF7860D5
:1020E0007B68002B01D1012372E27B681B6803F03F
:1020F0000103002B00F08780924B5B6803F00C0318
:10210000042B0CD08F4B5B6803F00C03082B12D10F
:102110008C4B5B6803F48033B3F5803F0BD1894B64
:102120001B6803F40033002B6CD07B685B68002BCA
:1021300068D101234CE27B685B68B3F5803F06D130
:10214000804B1B687F4A43F4803313602EE07B682A
:102150005B68002B0CD17B4B1B687A4A23F48033DD
:102160001360784B1B68774A23F4802313601DE0CB
:102170007B685B68B3F5A02F0CD1724B1B68714A6A
:1021800043F4802313606F4B1B686E4A43F4803323
:1021900013600BE06B4B1B686A4A23F480331360B7
:1021A000684B1B68674A23F4802313607B685B6875
:1021B000002B13D0FFF792F8386108E0FFF78EF894
:1021C00002463B69D31A642B01D9032300E25D4B1D
:1021D0001B6803F40033002BF0D014E0FFF77EF807
:1021E000386108E0FFF77AF802463B69D31A642B9E
:1021F00001D90323ECE1534B1B6803F40033002B9C
:10220000F0D100E000BF7B681B6803F00203002BE5
:1022100063D04C4B5B6803F00C03002B0BD0494B95
:102220005B6803F00C03082B1CD1464B5B6803F47E
:102230008033002B16D1434B1B6803F00203002BA5
:1022400005D07B681B69012B01D00123C0E13D4B08
:102250001B6823F0F8027B685B69DB003949134394
:102260000B603AE07B681B69002B20D0364B0122C3
:102270001A60FFF733F8386108E0FFF72FF80246DD
:102280003B69D31A022B01D90323A1E12D4B1B6813
:1022900003F00203002BF0D02A4B1B6823F0F80256
:1022A0007B685B69DB00274913430B6015E0264B15
:1022B00000221A60FFF712F8386108E0FFF70EF805
:1022C00002463B69D31A022B01D9032380E11D4B3F
:1022D0001B6803F00203002BF0D17B681B6803F03E
:1022E0000803002B3AD07B689B69002B19D0174B51
:1022F00001221A60FEF7F2FF386108E0FEF7EEFFF8
:1023000002463B69D31A022B01D9032360E10D4B2E
:102310005B6A03F00203002BF0D0012000F0BAFA50
:102320001CE00A4B00221A60FEF7D8FF38610FE06C
:10233000FEF7D4FF02463B69D31A022B08D90323C8
:1023400046E100BF001002400000424280044242C9
:10235000924B5B6A03F00203002BE9D17B681B6898
:1023600003F00403002B00F0A6800023FB758B4BC9
:10237000DB6903F08053002B0DD1884BDB69874A62
:1023800043F08053D361854BDB6903F08053BB601E
:10239000BB680123FB75824B1B6803F48073002B21
:1023A00018D17F4B1B687E4A43F480731360FEF79D
:1023B00095FF386108E0FEF791FF02463B69D31AAA
:1023C000642B01D9032303E1754B1B6803F480736D
:1023D000002BF0D07B68DB68012B06D16F4B1B6AAA
:1023E0006E4A43F0010313622DE07B68DB68002B2B
:1023F0000CD16A4B1B6A694A23F001031362674BD5
:102400001B6A664A23F0040313621CE07B68DB68E6
:10241000052B0CD1614B1B6A604A43F00403136225
:102420005E4B1B6A5D4A43F0010313620BE05B4B9A
:102430001B6A5A4A23F001031362584B1B6A574A1E
:1024400023F0040313627B68DB68002B15D0FEF7D2
:1024500045FF38610AE0FEF741FF02463B69D31AA7
:1024600041F28832934201D90323B1E04B4B1B6AFE
:1024700003F00203002BEED014E0FEF72FFF3861CB
:102480000AE0FEF72BFF02463B69D31A41F288327D
:10249000934201D903239BE0404B1B6A03F00203E4
:1024A000002BEED1FB7D012B05D13C4BDB693B4A78
:1024B00023F08053D3617B68DB69002B00F08780B9
:1024C000364B5B6803F00C03082B61D07B68DB693B
:1024D000022B46D1334B00221A60FEF7FFFE386113
:1024E00008E0FEF7FBFE02463B69D31A022B01D936
:1024F00003236DE0294B1B6803F00073002BF0D120
:102500007B681B6AB3F5803F08D1244B5B6823F4DA
:1025100000327B689B68214913434B601F4B5B680B
:1025200023F474127B68196A7B685B6A0B431B494E
:1025300013434B601B4B01221A60FEF7CFFE38613C
:1025400008E0FEF7CBFE02463B69D31A022B01D905
:1025500003233DE0114B1B6803F00073002BF0D008
:1025600035E0104B00221A60FEF7B8FE386108E033
:10257000FEF7B4FE02463B69D31A022B01D90323AE
:1025800026E0064B1B6803F00073002BF0D11EE021
:102590007B68DB69012B07D1012319E000100240A1
:1025A00000700040600042420B4B5B68FB60FB68C0
:1025B00003F480327B681B6A9A4206D1FB6803F4FD
:1025C00070127B685B6A9A4201D0012300E000230D
:1025D00018461837BD4680BD0010024080B584B053
:1025E00000AF786039607B68002B01D10123D0E017
:1025F0006A4B1B6803F007033A689A4210D9674B8D
:102600001B6823F0070265493B6813430B60634B6B
:102610001B6803F007033A689A4201D00123B8E02F
:102620007B681B6803F00203002B20D07B681B68CB
:1026300003F00403002B05D0594B5B68584A43F460
:10264000E06353607B681B6803F00803002B05D030
:10265000534B5B68524A43F460535360504B5B6882
:1026600023F0F0027B689B684D4913434B607B6805
:102670001B6803F00103002B40D07B685B68012BD3
:1026800007D1474B1B6803F40033002B15D10123FE
:102690007FE07B685B68022B07D1414B1B6803F02E
:1026A0000073002B09D1012373E03D4B1B6803F03D
:1026B0000203002B01D101236BE0394B5B6823F04F
:1026C00003027B685B68364913434B60FEF706FEE6
:1026D000F8600AE0FEF702FE0246FB68D31A41F2F8
:1026E0008832934201D9032353E02D4B5B6803F0FA
:1026F0000C027B685B689B009A42EBD1274B1B68FE
:1027000003F007033A689A4210D2244B1B6823F067
:10271000070222493B6813430B60204B1B6803F000
:1027200007033A689A4201D0012332E07B681B68B4
:1027300003F00403002B08D0194B5B6823F4E0621C
:102740007B68DB68164913434B607B681B6803F0AA
:102750000803002B09D0124B5B6823F460527B689E
:102760001B69DB000E4913434B6000F021F8024661
:102770000B4B5B681B0903F00F030A49CB5C22FA81
:1027800003F3094A1360094B1B681846FEF764FD02
:10279000002318461037BD4680BD00BF0020024010
:1027A00000100240543800080000002004000020FF
:1027B00080B487B000AF0023FB600023BB60002320
:1027C0007B6100237B6000233B611E4B5B68FB60E9
:1027D000FB6803F00C03042B02D0082B03D027E086
:1027E000194B3B6127E0FB689B0C03F00F03174A72
:1027F000D35C7B60FB6803F48033002B10D0114B5B
:102800005B685B0C03F00103114AD35CBB607B681F
:102810000D4A03FB02F2BB68B2FBF3F37B6104E0F9
:102820007B680C4A02FB03F37B617B693B6102E03E
:10283000054B3B6100BF3B6918461C37BD4680BC59
:10284000704700BF0010024000127A006C38000888
:102850007C38000800093D0080B400AF024B1B68C3
:102860001846BD4680BC70470000002080B500AF10
:10287000FFF7F2FF0246054B5B68DB0A03F0070334
:102880000349CB5C22FA03F3184680BD00100240D6
:102890006438000880B485B000AF78600A4B1B68CC
:1028A0000A4AA2FB03235B0A7A6802FB03F3FB607C
:1028B00000BFFB685A1EFA60002BF9D100BF00BFB1
:1028C0001437BD4680BC704700000020D34D621015
:1028D00080B586B000AF786000233B610023FB60C9
:1028E0007B681B6803F00103002B7DD00023FB7580
:1028F0004F4BDB6903F08053002B0DD14C4BDB6950
:102900004B4A43F08053D361494BDB6903F080535A
:10291000BB60BB680123FB75464B1B6803F48073E7
:10292000002B18D1434B1B68424A43F48073136059
:10293000FEF7D4FC386108E0FEF7D0FC02463B69A4
:10294000D31A642B01D903236DE03A4B1B6803F4BF
:102950008073002BF0D0364B1B6A03F44073FB608E
:10296000FB68002B2ED07B685B6803F44073FA6829
:102970009A4227D02E4B1B6A23F44073FB602E4BE8
:1029800001221A602C4B00221A60294AFB6813624C
:10299000FB6803F00103002B14D0FEF79FFC3861A5
:1029A0000AE0FEF79BFC02463B69D31A41F28832EB
:1029B000934201D9032336E01D4B1B6A03F0020347
:1029C000002BEED01A4B1B6A23F440727B685B68C5
:1029D000174913430B62FB7D012B05D1144BDB69B7
:1029E000134A23F08053D3617B681B6803F0020312
:1029F000002B08D00E4B5B6823F440427B689B6839
:102A00000B4913434B607B681B6803F01003002BDA
:102A100008D0074B5B6823F480027B68DB680449BD
:102A200013434B60002318461837BD4680BD00BFD6
:102A300000100240007000404004424280B588B05F
:102A400000AF786000237B610023FB6100233B61C2
:102A50000023FB600023BB617B68102B0AD07B68DE
:102A6000102B00F28A807B68012B45D07B68022BFB
:102A700075D082E0464B5B68FB60454B1B6803F0FA
:102A80008073002B7BD0FB689B0C03F00F03414A43
:102A9000D35C3B61FB6803F48033002B15D03C4BC7
:102AA0005B685B0C03F001033B4AD35C7B61FB6812
:102AB00003F48033002B0DD0384A7B69B2FBF3F26C
:102AC0003B6902FB03F3FB6104E03B69344A02FB10
:102AD00003F3FB612E4B5B6803F48003B3F5800FB7
:102AE00002D1FB69BB614AE0FB695B002D4AA2FB96
:102AF00003235B08BB6142E0254B1B6AFB60FB685C
:102B000003F44073B3F5807F08D1FB6803F0020340
:102B1000002B03D04FF40043BB611FE0FB6803F4BC
:102B20004073B3F5007F09D1194B5B6A03F00203D0
:102B3000002B03D049F64043BB610FE0FB6803F470
:102B40004073B3F5407F1CD1114B1B6803F4003375
:102B5000002B16D04FF22443BB6112E011E0FFF7C7
:102B600085FE02460A4B5B689B0B03F003030133AF
:102B70005B00B2FBF3F3BB6104E000BF02E000BF07
:102B800000E000BFBB6918462037BD4680BD00BFCE
:102B900000100240803800089038000800127A00C7
:102BA00000093D00ABAAAAAA80B582B000AF786048
:102BB0007B68002B01D1012341E07B6893F83D3015
:102BC000DBB2002B06D17B68002283F83C207868BA
:102BD000FEF782FA7B68022283F83D207B681A6840
:102BE0007B6804331946104600F0ACFA7B6801227A
:102BF00083F846207B68012283F83E207B6801220F
:102C000083F83F207B68012283F840207B68012203
:102C100083F841207B68012283F842207B680122EF
:102C200083F843207B68012283F844207B680122DB
:102C300083F845207B68012283F83D200023184655
:102C40000837BD4680BD80B582B000AF78607B6834
:102C5000002B01D1012341E07B6893F83D30DBB2CA
:102C6000002B06D17B68002283F83C20786800F0B6
:102C700039F87B68022283F83D207B681A687B68FC
:102C800004331946104600F05DFA7B68012283F890
:102C900046207B68012283F83E207B68012283F86E
:102CA0003F207B68012283F840207B68012283F863
:102CB00041207B68012283F842207B68012283F84F
:102CC00043207B68012283F844207B68012283F83B
:102CD00045207B68012283F83D20002318460837F1
:102CE000BD4680BD80B483B000AF786000BF0C37B4
:102CF000BD4680BC7047000080B584B000AF7860EE
:102D000039603B68002B09D17B6893F83E30DBB219
:102D1000012B14BF01230023DBB222E03B68042B0C
:102D200009D17B6893F83F30DBB2012B14BF01233C
:102D30000023DBB215E03B68082B09D17B6893F8D0
:102D40004030DBB2012B14BF01230023DBB208E0CB
:102D50007B6893F84130DBB2012B14BF01230023C1
:102D6000DBB2002B01D0012359E03B68002B04D1DA
:102D70007B68022283F83E2013E03B68042B04D1D9
:102D80007B68022283F83F200BE03B68082B04D1CC
:102D90007B68022283F8402003E07B68022283F8EC
:102DA00041207B681B6801223968184600F04CFC02
:102DB0007B681B681C4A934207D17B681B685A6C6E
:102DC0007B681B6842F400425A647B681B68164AA1
:102DD000934209D07B681B68B3F1804F04D07B68B5
:102DE0001B68124A934211D17B681B689B6803F0F1
:102DF0000703FB60FB68062B10D07B681B681A6812
:102E00007B681B6842F001021A6007E07B681B6860
:102E10001A687B681B6842F001021A60002318469A
:102E20001037BD4680BD00BF002C014000040040AB
:102E300080B586B000AFF860B9607A600023FB759A
:102E4000FB6893F83C30012B01D10223AEE0FB6814
:102E5000012283F83C207B680C2B00F29F8001A2AA
:102E600052F823F0992E00089D2F00089D2F00088E
:102E70009D2F0008D92E00089D2F00089D2F0008C7
:102E80009D2F00081B2F00089D2F00089D2F000874
:102E90009D2F00085B2F0008FB681B68B968184667
:102EA00000F0B4F9FB681B689A69FB681B6842F084
:102EB00008029A61FB681B689A69FB681B6822F02C
:102EC00004029A61FB681B689969BB681A69FB6810
:102ED0001B680A439A6164E0FB681B68B96818467E
:102EE00000F0FAF9FB681B689A69FB681B6842F4FA
:102EF00000629A61FB681B689A69FB681B6822F490
:102F000080629A61FB681B689969BB681B691A0239
:102F1000FB681B680A439A6143E0FB681B68B96859
:102F2000184600F043FAFB681B68DA69FB681B6807
:102F300042F00802DA61FB681B68DA69FB681B680B
:102F400022F00402DA61FB681B68D969BB681A6960
:102F5000FB681B680A43DA6123E0FB681B68B968F9
:102F6000184600F08DFAFB681B68DA69FB681B687D
:102F700042F40062DA61FB681B68DA69FB681B686F
:102F800022F48062DA61FB681B68D969BB681B693F
:102F90001A02FB681B680A43DA6102E00123FB7531
:102FA00000BFFB68002283F83C20FB7D18461837E1
:102FB000BD4680BD80B584B000AF78603960002325
:102FC000FB737B6893F83C30012B01D10223B4E002
:102FD0007B68012283F83C207B68022283F83D2035
:102FE0007B681B689B68BB60BB6823F07703BB6092
:102FF000BB6823F47F43BB607B681B68BA689A6038
:103000003B681B68B3F5005F3ED0B3F5005F00F28C
:103010008780B3F5805F00F08680B3F5805F7FD84E
:10302000702B1AD0702B7BD8602B50D0602B77D8A8
:10303000502B3CD0502B73D8402B58D0402B6FD8FE
:10304000302B64D0302B6BD8202B60D0202B67D84E
:10305000002B5CD0102B5AD062E07B6818683B686C
:1030600099683B685A683B68DB6800F0CEFA7B6879
:103070001B689B68BB60BB6843F07703BB607B68E1
:103080001B68BA689A604FE07B6818683B6899686B
:103090003B685A683B68DB6800F0B7FA7B681B68DE
:1030A0009A687B681B6842F480429A603CE07B68C7
:1030B00018683B6859683B68DB681A4600F02EFACE
:1030C0007B681B685021184600F085FA2CE07B686D
:1030D00018683B6859683B68DB681A4600F04CFA90
:1030E0007B681B686021184600F075FA1CE07B685D
:1030F00018683B6859683B68DB681A4600F00EFAAE
:103100007B681B684021184600F065FA0CE07B687C
:103110001A683B681B681946104600F05CFA03E029
:103120000123FB7300E000BF7B68012283F83D2090
:103130007B68002283F83C20FB7B18461037BD4695
:1031400080BD000080B485B000AF786039607B68D6
:103150001B68FB607B682B4A934207D07B68B3F106
:10316000804F03D07B68284A934208D1FB6823F044
:103170007003FB603B685B68FA681343FB607B6825
:10318000204A934207D07B68B3F1804F03D07B681D
:103190001D4A934208D1FB6823F44073FB603B68EF
:1031A000DB68FA681343FB60FB6823F080023B682E
:1031B0005B691343FB607B68FA681A603B689A6836
:1031C0007B68DA623B681A687B689A627B680D4AA2
:1031D000934203D13B681A697B681A637B680122BA
:1031E0005A617B681B6903F00103002B05D07B68E3
:1031F0001B6923F001027B681A6100BF1437BD46CA
:1032000080BC7047002C01400004004080B487B0AF
:1032100000AF786039607B681B6A7B617B681B6AE2
:1032200023F001027B681A627B685B683B617B6804
:103230009B69FB60FB6823F07003FB60FB6823F075
:103240000303FB603B681B68FA681343FB607B6900
:1032500023F002037B613B689B687A6913437B61BF
:103260007B681C4A93420CD17B6923F008037B6185
:103270003B68DB687A6913437B617B6923F0040355
:103280007B617B68134A934211D13B6923F48073BD
:103290003B613B6923F400733B613B685B693A69BE
:1032A00013433B613B689B693A6913433B617B680D
:1032B0003A695A607B68FA689A613B685A687B6829
:1032C0005A637B687A691A6200BF1C37BD4680BCAE
:1032D000704700BF002C014080B487B000AF786019
:1032E00039607B681B6A7B617B681B6A23F0100274
:1032F0007B681A627B685B683B617B689B69FB60EB
:10330000FB6823F4E043FB60FB6823F44073FB603D
:103310003B681B681B02FA681343FB607B6923F060
:1033200020037B613B689B681B017A6913437B61C7
:103330007B681D4A93420DD17B6923F080037B613A
:103340003B68DB681B017A6913437B617B6923F06F
:1033500040037B617B68144A934213D13B6923F499
:1033600080633B613B6923F400633B613B685B69BD
:103370009B003A6913433B613B689B699B003A6938
:1033800013433B617B683A695A607B68FA689A61CB
:103390003B685A687B689A637B687A691A6200BFE7
:1033A0001C37BD4680BC7047002C014080B487B0FC
:1033B00000AF786039607B681B6A7B617B681B6A41
:1033C00023F480727B681A627B685B683B617B6870
:1033D000DB69FB60FB6823F07003FB60FB6823F094
:1033E0000303FB603B681B68FA681343FB607B695F
:1033F00023F400737B613B689B681B027A6913436B
:103400007B617B681D4A93420DD17B6923F4006385
:103410007B613B68DB681B027A6913437B617B69D4
:1034200023F480637B617B68144A934213D13B6928
:1034300023F480533B613B6923F400533B613B68B9
:103440005B691B013A6913433B613B689B691B0144
:103450003A6913433B617B683A695A607B68FA6852
:10346000DA613B685A687B68DA637B687A691A625A
:1034700000BF1C37BD4680BC704700BF002C014018
:1034800080B487B000AF786039607B681B6A3B61AD
:103490007B681B6A23F480527B681A627B685B68D6
:1034A0007B617B68DB69FB60FB6823F4E043FB60C6
:1034B000FB6823F44073FB603B681B681B02FA68DF
:1034C0001343FB603B6923F400533B613B689B68FB
:1034D0001B033A6913433B617B680F4A934209D14E
:1034E0007B6923F480437B613B685B699B017A695C
:1034F00013437B617B687A695A607B68FA68DA619A
:103500003B685A687B681A647B683A691A6200BF34
:103510001C37BD4680BC7047002C014080B487B08A
:1035200000AFF860B9607A60FB681B6A7B61FB687A
:103530001B6A23F00102FB681A62FB689B693B610E
:103540003B6923F0F0033B617B681B013A6913433D
:103550003B617B6923F00A037B617A69BB68134393
:103560007B61FB683A699A61FB687A691A6200BFFD
:103570001C37BD4680BC704780B487B000AFF86090
:10358000B9607A60FB681B6A7B61FB681B6A23F089
:103590001002FB681A62FB689B693B613B6923F47C
:1035A00070433B617B681B033A6913433B617B6952
:1035B00023F0A0037B61BB681B017A6913437B6125
:1035C000FB683A699A61FB687A691A6200BF1C3726
:1035D000BD4680BC704780B485B000AF786039606C
:1035E0007B689B68FB60FB6823F07003FB603A68B4
:1035F000FB68134343F00703FB607B68FA689A603B
:1036000000BF1437BD4680BC704780B487B000AFA0
:10361000F860B9607A603B60FB689B687B617B699E
:1036200023F47F437B613B681A027B681A43BB68C3
:1036300013437A6913437B61FB687A699A6000BF20
:103640001C37BD4680BC704780B487B000AFF860BF
:10365000B9607A60BB6803F01F03012202FA03F32A
:103660007B61FB681A6A7B69DB431A40FB681A625C
:10367000FB681A6ABB6803F01F03796801FA03F359
:103680001A43FB681A6200BF1C37BD4680BC7047F6
:1036900080B485B000AF786039607B6893F83C30C7
:1036A000012B01D1022341E07B68012283F83C20F9
:1036B0007B68022283F83D207B681B685B68FB60A7
:1036C0007B681B689B68BB60FB6823F07003FB6032
:1036D0003B681B68FA681343FB607B681B68FA68E9
:1036E0005A607B681B68144A934209D07B681B6848
:1036F000B3F1804F04D07B681B68104A93420CD111
:10370000BB6823F08003BB603B685B68BA68134307
:10371000BB607B681B68BA689A607B68012283F88B
:103720003D207B68002283F83C2000231846143794
:10373000BD4680BC704700BF002C01400004004023
:1037400080B485B000AF786039600023FB607B688F
:1037500093F83C30012B01D102233DE07B6801222C
:1037600083F83C20FB6823F0FF023B68DB681343CF
:10377000FB60FB6823F440723B689B681343FB606B
:10378000FB6823F480623B685B681343FB60FB6863
:1037900023F400623B681B681343FB60FB6823F45F
:1037A00080523B681B691343FB60FB6823F40052A3
:1037B0003B685B691343FB60FB6823F480423B6812
:1037C000DB691343FB607B681B68FA685A647B689B
:1037D000002283F83C20002318461437BD4680BCE5
:1037E000704703460244934200D1704703F8011B1F
:1037F000F9E7000070B500260C4D0D4C641BA410B9
:10380000A64209D100F01AF800260A4D0A4C641BA2
:10381000A410A64205D170BD55F8043B9847013667
:10382000EEE755F8043B98470136F2E79438000874
:10383000943800089438000898380008F8B500BF9C
:10384000F8BC08BC9E467047F8B500BFF8BC08BC81
:043850009E467047D9
:10385400000000000000000001020304060708093C
:10386400000000000102030402030405060708091E
:103874000A0B0C0D0E0F10100102000002030405C8
:10388400060708090A0B0C0D0E0F101001020000A8
:0438940035010008F2
:043898001101000812
:0C389C0000127A00100000000100000083
:04000005080011E1FD
:00000001FF
